{
  "_format": "hh-sol-artifact-1",
  "contractName": "Market",
  "sourceName": "contracts/Market.sol",
  "abi": [
    {
      "inputs": [
        {
          "internalType": "address",
          "name": "_currencyTokenAddress",
          "type": "address"
        }
      ],
      "stateMutability": "nonpayable",
      "type": "constructor"
    },
    {
      "anonymous": false,
      "inputs": [
        {
          "indexed": true,
          "internalType": "address",
          "name": "owner",
          "type": "address"
        },
        {
          "indexed": true,
          "internalType": "address",
          "name": "approved",
          "type": "address"
        },
        {
          "indexed": true,
          "internalType": "uint256",
          "name": "tokenId",
          "type": "uint256"
        }
      ],
      "name": "Approval",
      "type": "event"
    },
    {
      "anonymous": false,
      "inputs": [
        {
          "indexed": true,
          "internalType": "address",
          "name": "owner",
          "type": "address"
        },
        {
          "indexed": true,
          "internalType": "address",
          "name": "operator",
          "type": "address"
        },
        {
          "indexed": false,
          "internalType": "bool",
          "name": "approved",
          "type": "bool"
        }
      ],
      "name": "ApprovalForAll",
      "type": "event"
    },
    {
      "anonymous": false,
      "inputs": [
        {
          "indexed": false,
          "internalType": "uint256",
          "name": "ad",
          "type": "uint256"
        },
        {
          "indexed": false,
          "internalType": "bytes32",
          "name": "status",
          "type": "bytes32"
        }
      ],
      "name": "OfferStatusChange",
      "type": "event"
    },
    {
      "anonymous": false,
      "inputs": [
        {
          "indexed": true,
          "internalType": "address",
          "name": "from",
          "type": "address"
        },
        {
          "indexed": true,
          "internalType": "address",
          "name": "to",
          "type": "address"
        },
        {
          "indexed": true,
          "internalType": "uint256",
          "name": "tokenId",
          "type": "uint256"
        }
      ],
      "name": "Transfer",
      "type": "event"
    },
    {
      "inputs": [
        {
          "internalType": "address",
          "name": "to",
          "type": "address"
        },
        {
          "internalType": "uint256",
          "name": "tokenId",
          "type": "uint256"
        }
      ],
      "name": "approve",
      "outputs": [],
      "stateMutability": "nonpayable",
      "type": "function"
    },
    {
      "inputs": [
        {
          "internalType": "address",
          "name": "owner",
          "type": "address"
        }
      ],
      "name": "balanceOf",
      "outputs": [
        {
          "internalType": "uint256",
          "name": "",
          "type": "uint256"
        }
      ],
      "stateMutability": "view",
      "type": "function"
    },
    {
      "inputs": [
        {
          "internalType": "uint256",
          "name": "_offer",
          "type": "uint256"
        }
      ],
      "name": "buyLicense",
      "outputs": [
        {
          "internalType": "uint256",
          "name": "",
          "type": "uint256"
        }
      ],
      "stateMutability": "nonpayable",
      "type": "function"
    },
    {
      "inputs": [
        {
          "internalType": "uint256",
          "name": "_offer",
          "type": "uint256"
        }
      ],
      "name": "cancelOffer",
      "outputs": [],
      "stateMutability": "nonpayable",
      "type": "function"
    },
    {
      "inputs": [],
      "name": "currencyToken",
      "outputs": [
        {
          "internalType": "contract IERC20",
          "name": "",
          "type": "address"
        }
      ],
      "stateMutability": "view",
      "type": "function"
    },
    {
      "inputs": [
        {
          "internalType": "uint256",
          "name": "tokenId",
          "type": "uint256"
        }
      ],
      "name": "getApproved",
      "outputs": [
        {
          "internalType": "address",
          "name": "",
          "type": "address"
        }
      ],
      "stateMutability": "view",
      "type": "function"
    },
    {
      "inputs": [
        {
          "internalType": "uint256",
          "name": "_offer",
          "type": "uint256"
        }
      ],
      "name": "getOffer",
      "outputs": [
        {
          "components": [
            {
              "internalType": "address",
              "name": "nft",
              "type": "address"
            },
            {
              "internalType": "uint256",
              "name": "item",
              "type": "uint256"
            },
            {
              "internalType": "address",
              "name": "owner",
              "type": "address"
            }
          ],
          "internalType": "struct Market.Original",
          "name": "",
          "type": "tuple"
        },
        {
          "internalType": "uint256",
          "name": "",
          "type": "uint256"
        },
        {
          "internalType": "bytes32",
          "name": "",
          "type": "bytes32"
        }
      ],
      "stateMutability": "view",
      "type": "function"
    },
    {
      "inputs": [
        {
          "internalType": "uint256",
          "name": "from",
          "type": "uint256"
        },
        {
          "internalType": "uint256",
          "name": "size",
          "type": "uint256"
        }
      ],
      "name": "getOffers",
      "outputs": [
        {
          "components": [
            {
              "components": [
                {
                  "internalType": "address",
                  "name": "nft",
                  "type": "address"
                },
                {
                  "internalType": "uint256",
                  "name": "item",
                  "type": "uint256"
                },
                {
                  "internalType": "address",
                  "name": "owner",
                  "type": "address"
                }
              ],
              "internalType": "struct Market.Original",
              "name": "original",
              "type": "tuple"
            },
            {
              "internalType": "uint256",
              "name": "price",
              "type": "uint256"
            },
            {
              "internalType": "bytes32",
              "name": "status",
              "type": "bytes32"
            }
          ],
          "internalType": "struct Market.Offer[]",
          "name": "",
          "type": "tuple[]"
        }
      ],
      "stateMutability": "view",
      "type": "function"
    },
    {
      "inputs": [
        {
          "internalType": "address",
          "name": "owner",
          "type": "address"
        },
        {
          "internalType": "address",
          "name": "operator",
          "type": "address"
        }
      ],
      "name": "isApprovedForAll",
      "outputs": [
        {
          "internalType": "bool",
          "name": "",
          "type": "bool"
        }
      ],
      "stateMutability": "view",
      "type": "function"
    },
    {
      "inputs": [],
      "name": "itemToken",
      "outputs": [
        {
          "internalType": "contract IERC721",
          "name": "",
          "type": "address"
        }
      ],
      "stateMutability": "view",
      "type": "function"
    },
    {
      "inputs": [],
      "name": "name",
      "outputs": [
        {
          "internalType": "string",
          "name": "",
          "type": "string"
        }
      ],
      "stateMutability": "view",
      "type": "function"
    },
    {
      "inputs": [
        {
          "internalType": "uint256",
          "name": "",
          "type": "uint256"
        }
      ],
      "name": "offers",
      "outputs": [
        {
          "components": [
            {
              "internalType": "address",
              "name": "nft",
              "type": "address"
            },
            {
              "internalType": "uint256",
              "name": "item",
              "type": "uint256"
            },
            {
              "internalType": "address",
              "name": "owner",
              "type": "address"
            }
          ],
          "internalType": "struct Market.Original",
          "name": "original",
          "type": "tuple"
        },
        {
          "internalType": "uint256",
          "name": "price",
          "type": "uint256"
        },
        {
          "internalType": "bytes32",
          "name": "status",
          "type": "bytes32"
        }
      ],
      "stateMutability": "view",
      "type": "function"
    },
    {
      "inputs": [
        {
          "internalType": "address",
          "name": "nftAddress",
          "type": "address"
        },
        {
          "internalType": "uint256",
          "name": "_item",
          "type": "uint256"
        },
        {
          "internalType": "uint256",
          "name": "_price",
          "type": "uint256"
        }
      ],
      "name": "openOffer",
      "outputs": [],
      "stateMutability": "nonpayable",
      "type": "function"
    },
    {
      "inputs": [
        {
          "internalType": "uint256",
          "name": "tokenId",
          "type": "uint256"
        }
      ],
      "name": "ownerOf",
      "outputs": [
        {
          "internalType": "address",
          "name": "",
          "type": "address"
        }
      ],
      "stateMutability": "view",
      "type": "function"
    },
    {
      "inputs": [
        {
          "internalType": "address",
          "name": "from",
          "type": "address"
        },
        {
          "internalType": "address",
          "name": "to",
          "type": "address"
        },
        {
          "internalType": "uint256",
          "name": "tokenId",
          "type": "uint256"
        }
      ],
      "name": "safeTransferFrom",
      "outputs": [],
      "stateMutability": "nonpayable",
      "type": "function"
    },
    {
      "inputs": [
        {
          "internalType": "address",
          "name": "from",
          "type": "address"
        },
        {
          "internalType": "address",
          "name": "to",
          "type": "address"
        },
        {
          "internalType": "uint256",
          "name": "tokenId",
          "type": "uint256"
        },
        {
          "internalType": "bytes",
          "name": "_data",
          "type": "bytes"
        }
      ],
      "name": "safeTransferFrom",
      "outputs": [],
      "stateMutability": "nonpayable",
      "type": "function"
    },
    {
      "inputs": [
        {
          "internalType": "address",
          "name": "operator",
          "type": "address"
        },
        {
          "internalType": "bool",
          "name": "approved",
          "type": "bool"
        }
      ],
      "name": "setApprovalForAll",
      "outputs": [],
      "stateMutability": "nonpayable",
      "type": "function"
    },
    {
      "inputs": [
        {
          "internalType": "bytes4",
          "name": "interfaceId",
          "type": "bytes4"
        }
      ],
      "name": "supportsInterface",
      "outputs": [
        {
          "internalType": "bool",
          "name": "",
          "type": "bool"
        }
      ],
      "stateMutability": "view",
      "type": "function"
    },
    {
      "inputs": [],
      "name": "symbol",
      "outputs": [
        {
          "internalType": "string",
          "name": "",
          "type": "string"
        }
      ],
      "stateMutability": "view",
      "type": "function"
    },
    {
      "inputs": [
        {
          "internalType": "uint256",
          "name": "index",
          "type": "uint256"
        }
      ],
      "name": "tokenByIndex",
      "outputs": [
        {
          "internalType": "uint256",
          "name": "",
          "type": "uint256"
        }
      ],
      "stateMutability": "view",
      "type": "function"
    },
    {
      "inputs": [
        {
          "internalType": "address",
          "name": "owner",
          "type": "address"
        },
        {
          "internalType": "uint256",
          "name": "index",
          "type": "uint256"
        }
      ],
      "name": "tokenOfOwnerByIndex",
      "outputs": [
        {
          "internalType": "uint256",
          "name": "",
          "type": "uint256"
        }
      ],
      "stateMutability": "view",
      "type": "function"
    },
    {
      "inputs": [
        {
          "internalType": "uint256",
          "name": "tokenId",
          "type": "uint256"
        }
      ],
      "name": "tokenURI",
      "outputs": [
        {
          "internalType": "string",
          "name": "",
          "type": "string"
        }
      ],
      "stateMutability": "view",
      "type": "function"
    },
    {
      "inputs": [],
      "name": "totalSupply",
      "outputs": [
        {
          "internalType": "uint256",
          "name": "",
          "type": "uint256"
        }
      ],
      "stateMutability": "view",
      "type": "function"
    },
    {
      "inputs": [
        {
          "internalType": "address",
          "name": "from",
          "type": "address"
        },
        {
          "internalType": "address",
          "name": "to",
          "type": "address"
        },
        {
          "internalType": "uint256",
          "name": "tokenId",
          "type": "uint256"
        }
      ],
      "name": "transferFrom",
      "outputs": [],
      "stateMutability": "nonpayable",
      "type": "function"
    }
  ],
  "bytecode": "0x60806040523480156200001157600080fd5b506040516200486b3803806200486b8339818101604052810190620000379190620001ee565b6040518060400160405280601081526020017f417574684d696e74204c6963656e7365000000000000000000000000000000008152506040518060400160405280600381526020017f414d4c00000000000000000000000000000000000000000000000000000000008152508160009080519060200190620000bb92919062000127565b508060019080519060200190620000d492919062000127565b50505080600b60006101000a81548173ffffffffffffffffffffffffffffffffffffffff021916908373ffffffffffffffffffffffffffffffffffffffff1602179055506000600f8190555050620002cd565b82805462000135906200024e565b90600052602060002090601f016020900481019282620001595760008555620001a5565b82601f106200017457805160ff1916838001178555620001a5565b82800160010185558215620001a5579182015b82811115620001a457825182559160200191906001019062000187565b5b509050620001b49190620001b8565b5090565b5b80821115620001d3576000816000905550600101620001b9565b5090565b600081519050620001e881620002b3565b92915050565b6000602082840312156200020157600080fd5b60006200021184828501620001d7565b91505092915050565b600062000227826200022e565b9050919050565b600073ffffffffffffffffffffffffffffffffffffffff82169050919050565b600060028204905060018216806200026757607f821691505b602082108114156200027e576200027d62000284565b5b50919050565b7f4e487b7100000000000000000000000000000000000000000000000000000000600052602260045260246000fd5b620002be816200021a565b8114620002ca57600080fd5b50565b61458e80620002dd6000396000f3fe608060405234801561001057600080fd5b50600436106101585760003560e01c80636b2fa374116100c3578063a22cb4651161007c578063a22cb46514610417578063b88d4fde14610433578063c87b56dd1461044f578063cae1a69c1461047f578063e985e9c5146104af578063ef706adf146104df57610158565b80636b2fa3741461032b57806370a0823114610349578063777f5440146103795780638a72ea6a1461039757806395d89b41146103c957806397d6eb19146103e757610158565b80632747511b116101155780632747511b146102315780632f745c591461024d57806342842e0e1461027d5780634579268a146102995780634f6ccce7146102cb5780636352211e146102fb57610158565b806301ffc9a71461015d57806306fdde031461018d578063081812fc146101ab578063095ea7b3146101db57806318160ddd146101f757806323b872dd14610215575b600080fd5b61017760048036038101906101729190613173565b6104fb565b6040516101849190613d20565b60405180910390f35b61019561050d565b6040516101a29190613d71565b60405180910390f35b6101c560048036038101906101c091906131c5565b61059f565b6040516101d29190613c60565b60405180910390f35b6101f560048036038101906101f091906130bf565b610624565b005b6101ff61073c565b60405161020c919061407a565b60405180910390f35b61022f600480360381019061022a9190612fb9565b610749565b005b61024b600480360381019061024691906130fb565b6107a9565b005b610267600480360381019061026291906130bf565b610a11565b604051610274919061407a565b60405180910390f35b61029760048036038101906102929190612fb9565b610ab6565b005b6102b360048036038101906102ae91906131c5565b610ad6565b6040516102c293929190614043565b60405180910390f35b6102e560048036038101906102e091906131c5565b610bfe565b6040516102f2919061407a565b60405180910390f35b610315600480360381019061031091906131c5565b610c95565b6040516103229190613c60565b60405180910390f35b610333610d47565b6040516103409190613d3b565b60405180910390f35b610363600480360381019061035e9190612f54565b610d6d565b604051610370919061407a565b60405180910390f35b610381610e25565b60405161038e9190613d56565b60405180910390f35b6103b160048036038101906103ac91906131c5565b610e4b565b6040516103c093929190614043565b60405180910390f35b6103d1610f35565b6040516103de9190613d71565b60405180910390f35b61040160048036038101906103fc91906131ee565b610fc7565b60405161040e9190613cfe565b60405180910390f35b610431600480360381019061042c9190613083565b6111b9565b005b61044d60048036038101906104489190613008565b61133a565b005b610469600480360381019061046491906131c5565b61139c565b6040516104769190613d71565b60405180910390f35b610499600480360381019061049491906131c5565b6113ae565b6040516104a6919061407a565b60405180910390f35b6104c960048036038101906104c49190612f7d565b611611565b6040516104d69190613d20565b60405180910390f35b6104f960048036038101906104f491906131c5565b6116a5565b005b600061050682611998565b9050919050565b60606000805461051c90614383565b80601f016020809104026020016040519081016040528092919081815260200182805461054890614383565b80156105955780601f1061056a57610100808354040283529160200191610595565b820191906000526020600020905b81548152906001019060200180831161057857829003601f168201915b5050505050905090565b60006105aa82611a12565b6105e9576040517f08c379a00000000000000000000000000000000000000000000000000000000081526004016105e090613f63565b60405180910390fd5b6004600083815260200190815260200160002060009054906101000a900473ffffffffffffffffffffffffffffffffffffffff169050919050565b600061062f82610c95565b90508073ffffffffffffffffffffffffffffffffffffffff168373ffffffffffffffffffffffffffffffffffffffff1614156106a0576040517f08c379a000000000000000000000000000000000000000000000000000000000815260040161069790613fe3565b60405180910390fd5b8073ffffffffffffffffffffffffffffffffffffffff166106bf611a7e565b73ffffffffffffffffffffffffffffffffffffffff1614806106ee57506106ed816106e8611a7e565b611611565b5b61072d576040517f08c379a000000000000000000000000000000000000000000000000000000000815260040161072490613ea3565b60405180910390fd5b6107378383611a86565b505050565b6000600880549050905090565b61075a610754611a7e565b82611b3f565b610799576040517f08c379a000000000000000000000000000000000000000000000000000000000815260040161079090614003565b60405180910390fd5b6107a4838383611c1d565b505050565b6107e86040518060400160405280600981526020017f53656e646572202573000000000000000000000000000000000000000000000081525033611e79565b8273ffffffffffffffffffffffffffffffffffffffff166323b872dd3330856040518463ffffffff1660e01b815260040161082593929190613c7b565b600060405180830381600087803b15801561083f57600080fd5b505af1158015610853573d6000803e3d6000fd5b50505050600060405180606001604052808573ffffffffffffffffffffffffffffffffffffffff1681526020018481526020013373ffffffffffffffffffffffffffffffffffffffff16815250905060405180606001604052808281526020018381526020017f4f70656e00000000000000000000000000000000000000000000000000000000815250600e6000600f54815260200190815260200160002060008201518160000160008201518160000160006101000a81548173ffffffffffffffffffffffffffffffffffffffff021916908373ffffffffffffffffffffffffffffffffffffffff1602179055506020820151816001015560408201518160020160006101000a81548173ffffffffffffffffffffffffffffffffffffffff021916908373ffffffffffffffffffffffffffffffffffffffff160217905550505060208201518160030155604082015181600401559050506001600f60008282546109bf91906141c0565b925050819055507f16c6d72fda516253077624657b53789a6ed7d1701ff2947523d18bb7578273be6001600f546109f69190614247565b604051610a0391906140bc565b60405180910390a150505050565b6000610a1c83610d6d565b8210610a5d576040517f08c379a0000000000000000000000000000000000000000000000000000000008152600401610a5490613de3565b60405180910390fd5b600660008473ffffffffffffffffffffffffffffffffffffffff1673ffffffffffffffffffffffffffffffffffffffff168152602001908152602001600020600083815260200190815260200160002054905092915050565b610ad18383836040518060200160405280600081525061133a565b505050565b610ade612d54565b6000806000600e6000868152602001908152602001600020604051806060016040529081600082016040518060600160405290816000820160009054906101000a900473ffffffffffffffffffffffffffffffffffffffff1673ffffffffffffffffffffffffffffffffffffffff1673ffffffffffffffffffffffffffffffffffffffff168152602001600182015481526020016002820160009054906101000a900473ffffffffffffffffffffffffffffffffffffffff1673ffffffffffffffffffffffffffffffffffffffff1673ffffffffffffffffffffffffffffffffffffffff16815250508152602001600382015481526020016004820154815250509050806000015181602001518260400151935093509350509193909250565b6000610c0861073c565b8210610c49576040517f08c379a0000000000000000000000000000000000000000000000000000000008152600401610c4090614023565b60405180910390fd5b60088281548110610c83577f4e487b7100000000000000000000000000000000000000000000000000000000600052603260045260246000fd5b90600052602060002001549050919050565b6000806002600084815260200190815260200160002060009054906101000a900473ffffffffffffffffffffffffffffffffffffffff169050600073ffffffffffffffffffffffffffffffffffffffff168173ffffffffffffffffffffffffffffffffffffffff161415610d3e576040517f08c379a0000000000000000000000000000000000000000000000000000000008152600401610d3590613ee3565b60405180910390fd5b80915050919050565b600b60009054906101000a900473ffffffffffffffffffffffffffffffffffffffff1681565b60008073ffffffffffffffffffffffffffffffffffffffff168273ffffffffffffffffffffffffffffffffffffffff161415610dde576040517f08c379a0000000000000000000000000000000000000000000000000000000008152600401610dd590613ec3565b60405180910390fd5b600360008373ffffffffffffffffffffffffffffffffffffffff1673ffffffffffffffffffffffffffffffffffffffff168152602001908152602001600020549050919050565b600c60009054906101000a900473ffffffffffffffffffffffffffffffffffffffff1681565b600e602052806000526040600020600091509050806000016040518060600160405290816000820160009054906101000a900473ffffffffffffffffffffffffffffffffffffffff1673ffffffffffffffffffffffffffffffffffffffff1673ffffffffffffffffffffffffffffffffffffffff168152602001600182015481526020016002820160009054906101000a900473ffffffffffffffffffffffffffffffffffffffff1673ffffffffffffffffffffffffffffffffffffffff1673ffffffffffffffffffffffffffffffffffffffff1681525050908060030154908060040154905083565b606060018054610f4490614383565b80601f0160208091040260200160405190810160405280929190818152602001828054610f7090614383565b8015610fbd5780601f10610f9257610100808354040283529160200191610fbd565b820191906000526020600020905b815481529060010190602001808311610fa057829003601f168201915b5050505050905090565b606060008267ffffffffffffffff81111561100b577f4e487b7100000000000000000000000000000000000000000000000000000000600052604160045260246000fd5b60405190808252806020026020018201604052801561104457816020015b611031612da1565b8152602001906001900390816110295790505b50905060008490505b838110156111ae576000600e6000838152602001908152602001600020905080604051806060016040529081600082016040518060600160405290816000820160009054906101000a900473ffffffffffffffffffffffffffffffffffffffff1673ffffffffffffffffffffffffffffffffffffffff1673ffffffffffffffffffffffffffffffffffffffff168152602001600182015481526020016002820160009054906101000a900473ffffffffffffffffffffffffffffffffffffffff1673ffffffffffffffffffffffffffffffffffffffff1673ffffffffffffffffffffffffffffffffffffffff168152505081526020016003820154815260200160048201548152505083838151811061118f577f4e487b7100000000000000000000000000000000000000000000000000000000600052603260045260246000fd5b60200260200101819052505080806111a6906143b5565b91505061104d565b508091505092915050565b6111c1611a7e565b73ffffffffffffffffffffffffffffffffffffffff168273ffffffffffffffffffffffffffffffffffffffff16141561122f576040517f08c379a000000000000000000000000000000000000000000000000000000000815260040161122690613e63565b60405180910390fd5b806005600061123c611a7e565b73ffffffffffffffffffffffffffffffffffffffff1673ffffffffffffffffffffffffffffffffffffffff16815260200190815260200160002060008473ffffffffffffffffffffffffffffffffffffffff1673ffffffffffffffffffffffffffffffffffffffff16815260200190815260200160002060006101000a81548160ff0219169083151502179055508173ffffffffffffffffffffffffffffffffffffffff166112e9611a7e565b73ffffffffffffffffffffffffffffffffffffffff167f17307eab39ab6107e8899845ad3d59bd9653f200f220920489ca2b5937696c318360405161132e9190613d20565b60405180910390a35050565b61134b611345611a7e565b83611b3f565b61138a576040517f08c379a000000000000000000000000000000000000000000000000000000000815260040161138190614003565b60405180910390fd5b61139684848484611f15565b50505050565b60606113a782611f71565b9050919050565b600080600e6000848152602001908152602001600020604051806060016040529081600082016040518060600160405290816000820160009054906101000a900473ffffffffffffffffffffffffffffffffffffffff1673ffffffffffffffffffffffffffffffffffffffff1673ffffffffffffffffffffffffffffffffffffffff168152602001600182015481526020016002820160009054906101000a900473ffffffffffffffffffffffffffffffffffffffff1673ffffffffffffffffffffffffffffffffffffffff1673ffffffffffffffffffffffffffffffffffffffff168152505081526020016003820154815260200160048201548152505090507f4f70656e00000000000000000000000000000000000000000000000000000000816040015114611515576040517f08c379a000000000000000000000000000000000000000000000000000000000815260040161150c90613fc3565b60405180910390fd5b600b60009054906101000a900473ffffffffffffffffffffffffffffffffffffffff1673ffffffffffffffffffffffffffffffffffffffff166323b872dd3383600001516040015184602001516040518463ffffffff1660e01b815260040161158093929190613c7b565b602060405180830381600087803b15801561159a57600080fd5b505af11580156115ae573d6000803e3d6000fd5b505050506040513d601f19601f820116820180604052508101906115d2919061314a565b506115dd600d6120c3565b60006115e9600d6120d9565b90506115f533826120e7565b61160781611602866122b5565b612462565b8092505050919050565b6000600560008473ffffffffffffffffffffffffffffffffffffffff1673ffffffffffffffffffffffffffffffffffffffff16815260200190815260200160002060008373ffffffffffffffffffffffffffffffffffffffff1673ffffffffffffffffffffffffffffffffffffffff16815260200190815260200160002060009054906101000a900460ff16905092915050565b6000600e6000838152602001908152602001600020604051806060016040529081600082016040518060600160405290816000820160009054906101000a900473ffffffffffffffffffffffffffffffffffffffff1673ffffffffffffffffffffffffffffffffffffffff1673ffffffffffffffffffffffffffffffffffffffff168152602001600182015481526020016002820160009054906101000a900473ffffffffffffffffffffffffffffffffffffffff1673ffffffffffffffffffffffffffffffffffffffff1673ffffffffffffffffffffffffffffffffffffffff1681525050815260200160038201548152602001600482015481525050905080600001516040015173ffffffffffffffffffffffffffffffffffffffff163373ffffffffffffffffffffffffffffffffffffffff161461181b576040517f08c379a000000000000000000000000000000000000000000000000000000000815260040161181290613dc3565b60405180910390fd5b7f4f70656e00000000000000000000000000000000000000000000000000000000816040015114611881576040517f08c379a000000000000000000000000000000000000000000000000000000000815260040161187890613fc3565b60405180910390fd5b600c60009054906101000a900473ffffffffffffffffffffffffffffffffffffffff1673ffffffffffffffffffffffffffffffffffffffff166323b872dd308360000151604001518460000151602001516040518463ffffffff1660e01b81526004016118f093929190613c7b565b600060405180830381600087803b15801561190a57600080fd5b505af115801561191e573d6000803e3d6000fd5b505050507f43616e63656c6c65640000000000000000000000000000000000000000000000600e6000848152602001908152602001600020600401819055507f16c6d72fda516253077624657b53789a6ed7d1701ff2947523d18bb7578273be8260405161198c9190614095565b60405180910390a15050565b60007f780e9d63000000000000000000000000000000000000000000000000000000007bffffffffffffffffffffffffffffffffffffffffffffffffffffffff1916827bffffffffffffffffffffffffffffffffffffffffffffffffffffffff19161480611a0b5750611a0a826124d6565b5b9050919050565b60008073ffffffffffffffffffffffffffffffffffffffff166002600084815260200190815260200160002060009054906101000a900473ffffffffffffffffffffffffffffffffffffffff1673ffffffffffffffffffffffffffffffffffffffff1614159050919050565b600033905090565b816004600083815260200190815260200160002060006101000a81548173ffffffffffffffffffffffffffffffffffffffff021916908373ffffffffffffffffffffffffffffffffffffffff160217905550808273ffffffffffffffffffffffffffffffffffffffff16611af983610c95565b73ffffffffffffffffffffffffffffffffffffffff167f8c5be1e5ebec7d5bd14f71427d1e84f3dd0314c0f7b2291e5b200ac8c7c3b92560405160405180910390a45050565b6000611b4a82611a12565b611b89576040517f08c379a0000000000000000000000000000000000000000000000000000000008152600401611b8090613e83565b60405180910390fd5b6000611b9483610c95565b90508073ffffffffffffffffffffffffffffffffffffffff168473ffffffffffffffffffffffffffffffffffffffff161480611c0357508373ffffffffffffffffffffffffffffffffffffffff16611beb8461059f565b73ffffffffffffffffffffffffffffffffffffffff16145b80611c145750611c138185611611565b5b91505092915050565b8273ffffffffffffffffffffffffffffffffffffffff16611c3d82610c95565b73ffffffffffffffffffffffffffffffffffffffff1614611c93576040517f08c379a0000000000000000000000000000000000000000000000000000000008152600401611c8a90613f83565b60405180910390fd5b600073ffffffffffffffffffffffffffffffffffffffff168273ffffffffffffffffffffffffffffffffffffffff161415611d03576040517f08c379a0000000000000000000000000000000000000000000000000000000008152600401611cfa90613e43565b60405180910390fd5b611d0e8383836125b8565b611d19600082611a86565b6001600360008573ffffffffffffffffffffffffffffffffffffffff1673ffffffffffffffffffffffffffffffffffffffff1681526020019081526020016000206000828254611d699190614247565b925050819055506001600360008473ffffffffffffffffffffffffffffffffffffffff1673ffffffffffffffffffffffffffffffffffffffff1681526020019081526020016000206000828254611dc091906141c0565b92505081905550816002600083815260200190815260200160002060006101000a81548173ffffffffffffffffffffffffffffffffffffffff021916908373ffffffffffffffffffffffffffffffffffffffff160217905550808273ffffffffffffffffffffffffffffffffffffffff168473ffffffffffffffffffffffffffffffffffffffff167fddf252ad1be2c89b69c2b068fc378daa952ba7f163c4a11628f55a4df523b3ef60405160405180910390a4505050565b611f118282604051602401611e8f929190613d93565b6040516020818303038152906040527f319af333000000000000000000000000000000000000000000000000000000007bffffffffffffffffffffffffffffffffffffffffffffffffffffffff19166020820180517bffffffffffffffffffffffffffffffffffffffffffffffffffffffff83818316178352505050506125c8565b5050565b611f20848484611c1d565b611f2c848484846125f1565b611f6b576040517f08c379a0000000000000000000000000000000000000000000000000000000008152600401611f6290613e03565b60405180910390fd5b50505050565b6060611f7c82611a12565b611fbb576040517f08c379a0000000000000000000000000000000000000000000000000000000008152600401611fb290613f43565b60405180910390fd5b6000600a60008481526020019081526020016000208054611fdb90614383565b80601f016020809104026020016040519081016040528092919081815260200182805461200790614383565b80156120545780601f1061202957610100808354040283529160200191612054565b820191906000526020600020905b81548152906001019060200180831161203757829003601f168201915b505050505090506000612065612788565b905060008151141561207b5781925050506120be565b6000825111156120b0578082604051602001612098929190613c3c565b604051602081830303815290604052925050506120be565b6120b98461279f565b925050505b919050565b6001816000016000828254019250508190555050565b600081600001549050919050565b600073ffffffffffffffffffffffffffffffffffffffff168273ffffffffffffffffffffffffffffffffffffffff161415612157576040517f08c379a000000000000000000000000000000000000000000000000000000000815260040161214e90613f23565b60405180910390fd5b61216081611a12565b156121a0576040517f08c379a000000000000000000000000000000000000000000000000000000000815260040161219790613e23565b60405180910390fd5b6121ac600083836125b8565b6001600360008473ffffffffffffffffffffffffffffffffffffffff1673ffffffffffffffffffffffffffffffffffffffff16815260200190815260200160002060008282546121fc91906141c0565b92505081905550816002600083815260200190815260200160002060006101000a81548173ffffffffffffffffffffffffffffffffffffffff021916908373ffffffffffffffffffffffffffffffffffffffff160217905550808273ffffffffffffffffffffffffffffffffffffffff16600073ffffffffffffffffffffffffffffffffffffffff167fddf252ad1be2c89b69c2b068fc378daa952ba7f163c4a11628f55a4df523b3ef60405160405180910390a45050565b606060008214156122fd576040518060400160405280600181526020017f3000000000000000000000000000000000000000000000000000000000000000815250905061245d565b600082905060005b6000821461232f578080612318906143b5565b915050600a826123289190614216565b9150612305565b60008167ffffffffffffffff811115612371577f4e487b7100000000000000000000000000000000000000000000000000000000600052604160045260246000fd5b6040519080825280601f01601f1916602001820160405280156123a35781602001600182028036833780820191505090505b5090505b60008514612456576001826123bc9190614247565b9150600a856123cb91906143fe565b60306123d791906141c0565b60f81b818381518110612413577f4e487b7100000000000000000000000000000000000000000000000000000000600052603260045260246000fd5b60200101907effffffffffffffffffffffffffffffffffffffffffffffffffffffffffffff1916908160001a905350600a8561244f9190614216565b94506123a7565b8093505050505b919050565b61246b82611a12565b6124aa576040517f08c379a00000000000000000000000000000000000000000000000000000000081526004016124a190613f03565b60405180910390fd5b80600a600084815260200190815260200160002090805190602001906124d1929190612dcb565b505050565b60007f80ac58cd000000000000000000000000000000000000000000000000000000007bffffffffffffffffffffffffffffffffffffffffffffffffffffffff1916827bffffffffffffffffffffffffffffffffffffffffffffffffffffffff191614806125a157507f5b5e139f000000000000000000000000000000000000000000000000000000007bffffffffffffffffffffffffffffffffffffffffffffffffffffffff1916827bffffffffffffffffffffffffffffffffffffffffffffffffffffffff1916145b806125b157506125b082612846565b5b9050919050565b6125c38383836128b0565b505050565b60008151905060006a636f6e736f6c652e6c6f679050602083016000808483855afa5050505050565b60006126128473ffffffffffffffffffffffffffffffffffffffff166129c4565b1561277b578373ffffffffffffffffffffffffffffffffffffffff1663150b7a0261263b611a7e565b8786866040518563ffffffff1660e01b815260040161265d9493929190613cb2565b602060405180830381600087803b15801561267757600080fd5b505af19250505080156126a857506040513d601f19601f820116820180604052508101906126a5919061319c565b60015b61272b573d80600081146126d8576040519150601f19603f3d011682016040523d82523d6000602084013e6126dd565b606091505b50600081511415612723576040517f08c379a000000000000000000000000000000000000000000000000000000000815260040161271a90613e03565b60405180910390fd5b805181602001fd5b63150b7a0260e01b7bffffffffffffffffffffffffffffffffffffffffffffffffffffffff1916817bffffffffffffffffffffffffffffffffffffffffffffffffffffffff191614915050612780565b600190505b949350505050565b606060405180602001604052806000815250905090565b60606127aa82611a12565b6127e9576040517f08c379a00000000000000000000000000000000000000000000000000000000081526004016127e090613fa3565b60405180910390fd5b60006127f3612788565b90506000815111612813576040518060200160405280600081525061283e565b8061281d846122b5565b60405160200161282e929190613c3c565b6040516020818303038152906040525b915050919050565b60007f01ffc9a7000000000000000000000000000000000000000000000000000000007bffffffffffffffffffffffffffffffffffffffffffffffffffffffff1916827bffffffffffffffffffffffffffffffffffffffffffffffffffffffff1916149050919050565b6128bb8383836129d7565b600073ffffffffffffffffffffffffffffffffffffffff168373ffffffffffffffffffffffffffffffffffffffff1614156128fe576128f9816129dc565b61293d565b8173ffffffffffffffffffffffffffffffffffffffff168373ffffffffffffffffffffffffffffffffffffffff161461293c5761293b8382612a25565b5b5b600073ffffffffffffffffffffffffffffffffffffffff168273ffffffffffffffffffffffffffffffffffffffff1614156129805761297b81612b92565b6129bf565b8273ffffffffffffffffffffffffffffffffffffffff168273ffffffffffffffffffffffffffffffffffffffff16146129be576129bd8282612cd5565b5b5b505050565b600080823b905060008111915050919050565b505050565b6008805490506009600083815260200190815260200160002081905550600881908060018154018082558091505060019003906000526020600020016000909190919091505550565b60006001612a3284610d6d565b612a3c9190614247565b9050600060076000848152602001908152602001600020549050818114612b21576000600660008673ffffffffffffffffffffffffffffffffffffffff1673ffffffffffffffffffffffffffffffffffffffff168152602001908152602001600020600084815260200190815260200160002054905080600660008773ffffffffffffffffffffffffffffffffffffffff1673ffffffffffffffffffffffffffffffffffffffff168152602001908152602001600020600084815260200190815260200160002081905550816007600083815260200190815260200160002081905550505b6007600084815260200190815260200160002060009055600660008573ffffffffffffffffffffffffffffffffffffffff1673ffffffffffffffffffffffffffffffffffffffff16815260200190815260200160002060008381526020019081526020016000206000905550505050565b60006001600880549050612ba69190614247565b9050600060096000848152602001908152602001600020549050600060088381548110612bfc577f4e487b7100000000000000000000000000000000000000000000000000000000600052603260045260246000fd5b906000526020600020015490508060088381548110612c44577f4e487b7100000000000000000000000000000000000000000000000000000000600052603260045260246000fd5b906000526020600020018190555081600960008381526020019081526020016000208190555060096000858152602001908152602001600020600090556008805480612cb9577f4e487b7100000000000000000000000000000000000000000000000000000000600052603160045260246000fd5b6001900381819060005260206000200160009055905550505050565b6000612ce083610d6d565b905081600660008573ffffffffffffffffffffffffffffffffffffffff1673ffffffffffffffffffffffffffffffffffffffff168152602001908152602001600020600083815260200190815260200160002081905550806007600084815260200190815260200160002081905550505050565b6040518060600160405280600073ffffffffffffffffffffffffffffffffffffffff16815260200160008152602001600073ffffffffffffffffffffffffffffffffffffffff1681525090565b6040518060600160405280612db4612d54565b815260200160008152602001600080191681525090565b828054612dd790614383565b90600052602060002090601f016020900481019282612df95760008555612e40565b82601f10612e1257805160ff1916838001178555612e40565b82800160010185558215612e40579182015b82811115612e3f578251825591602001919060010190612e24565b5b509050612e4d9190612e51565b5090565b5b80821115612e6a576000816000905550600101612e52565b5090565b6000612e81612e7c84614114565b6140e3565b905082815260208101848484011115612e9957600080fd5b612ea4848285614341565b509392505050565b600081359050612ebb816144fc565b92915050565b600081359050612ed081614513565b92915050565b600081519050612ee581614513565b92915050565b600081359050612efa8161452a565b92915050565b600081519050612f0f8161452a565b92915050565b600082601f830112612f2657600080fd5b8135612f36848260208601612e6e565b91505092915050565b600081359050612f4e81614541565b92915050565b600060208284031215612f6657600080fd5b6000612f7484828501612eac565b91505092915050565b60008060408385031215612f9057600080fd5b6000612f9e85828601612eac565b9250506020612faf85828601612eac565b9150509250929050565b600080600060608486031215612fce57600080fd5b6000612fdc86828701612eac565b9350506020612fed86828701612eac565b9250506040612ffe86828701612f3f565b9150509250925092565b6000806000806080858703121561301e57600080fd5b600061302c87828801612eac565b945050602061303d87828801612eac565b935050604061304e87828801612f3f565b925050606085013567ffffffffffffffff81111561306b57600080fd5b61307787828801612f15565b91505092959194509250565b6000806040838503121561309657600080fd5b60006130a485828601612eac565b92505060206130b585828601612ec1565b9150509250929050565b600080604083850312156130d257600080fd5b60006130e085828601612eac565b92505060206130f185828601612f3f565b9150509250929050565b60008060006060848603121561311057600080fd5b600061311e86828701612eac565b935050602061312f86828701612f3f565b925050604061314086828701612f3f565b9150509250925092565b60006020828403121561315c57600080fd5b600061316a84828501612ed6565b91505092915050565b60006020828403121561318557600080fd5b600061319384828501612eeb565b91505092915050565b6000602082840312156131ae57600080fd5b60006131bc84828501612f00565b91505092915050565b6000602082840312156131d757600080fd5b60006131e584828501612f3f565b91505092915050565b6000806040838503121561320157600080fd5b600061320f85828601612f3f565b925050602061322085828601612f3f565b9150509250929050565b60006132368383613b58565b60a08301905092915050565b61324b8161427b565b82525050565b61325a8161427b565b82525050565b600061326b82614154565b6132758185614182565b935061328083614144565b8060005b838110156132b1578151613298888261322a565b97506132a383614175565b925050600181019050613284565b5085935050505092915050565b6132c78161428d565b82525050565b6132d681614299565b82525050565b6132e581614299565b82525050565b60006132f68261415f565b6133008185614193565b9350613310818560208601614350565b613319816144eb565b840191505092915050565b61332d816142f9565b82525050565b61333c8161431d565b82525050565b600061334d8261416a565b61335781856141a4565b9350613367818560208601614350565b613370816144eb565b840191505092915050565b60006133868261416a565b61339081856141b5565b93506133a0818560208601614350565b80840191505092915050565b60006133b96025836141a4565b91507f4f666665722063616e2062652063616e63656c6c6564206f6e6c79206279206f60008301527f776e65722e0000000000000000000000000000000000000000000000000000006020830152604082019050919050565b600061341f602b836141a4565b91507f455243373231456e756d657261626c653a206f776e657220696e646578206f7560008301527f74206f6620626f756e64730000000000000000000000000000000000000000006020830152604082019050919050565b60006134856032836141a4565b91507f4552433732313a207472616e7366657220746f206e6f6e20455243373231526560008301527f63656976657220696d706c656d656e74657200000000000000000000000000006020830152604082019050919050565b60006134eb601c836141a4565b91507f4552433732313a20746f6b656e20616c7265616479206d696e746564000000006000830152602082019050919050565b600061352b6024836141a4565b91507f4552433732313a207472616e7366657220746f20746865207a65726f2061646460008301527f72657373000000000000000000000000000000000000000000000000000000006020830152604082019050919050565b60006135916019836141a4565b91507f4552433732313a20617070726f766520746f2063616c6c6572000000000000006000830152602082019050919050565b60006135d1602c836141a4565b91507f4552433732313a206f70657261746f7220717565727920666f72206e6f6e657860008301527f697374656e7420746f6b656e00000000000000000000000000000000000000006020830152604082019050919050565b60006136376038836141a4565b91507f4552433732313a20617070726f76652063616c6c6572206973206e6f74206f7760008301527f6e6572206e6f7220617070726f76656420666f7220616c6c00000000000000006020830152604082019050919050565b7f43616e63656c6c65640000000000000000000000000000000000000000000000815250565b60006136c3602a836141a4565b91507f4552433732313a2062616c616e636520717565727920666f7220746865207a6560008301527f726f2061646472657373000000000000000000000000000000000000000000006020830152604082019050919050565b60006137296029836141a4565b91507f4552433732313a206f776e657220717565727920666f72206e6f6e657869737460008301527f656e7420746f6b656e00000000000000000000000000000000000000000000006020830152604082019050919050565b600061378f602e836141a4565b91507f45524337323155524953746f726167653a2055524920736574206f66206e6f6e60008301527f6578697374656e7420746f6b656e0000000000000000000000000000000000006020830152604082019050919050565b60006137f56020836141a4565b91507f4552433732313a206d696e7420746f20746865207a65726f20616464726573736000830152602082019050919050565b60006138356031836141a4565b91507f45524337323155524953746f726167653a2055524920717565727920666f722060008301527f6e6f6e6578697374656e7420746f6b656e0000000000000000000000000000006020830152604082019050919050565b7f4f70656e00000000000000000000000000000000000000000000000000000000815250565b60006138c1602c836141a4565b91507f4552433732313a20617070726f76656420717565727920666f72206e6f6e657860008301527f697374656e7420746f6b656e00000000000000000000000000000000000000006020830152604082019050919050565b60006139276029836141a4565b91507f4552433732313a207472616e73666572206f6620746f6b656e2074686174206960008301527f73206e6f74206f776e00000000000000000000000000000000000000000000006020830152604082019050919050565b600061398d602f836141a4565b91507f4552433732314d657461646174613a2055524920717565727920666f72206e6f60008301527f6e6578697374656e7420746f6b656e00000000000000000000000000000000006020830152604082019050919050565b60006139f36012836141a4565b91507f4f66666572206973206e6f74204f70656e2e00000000000000000000000000006000830152602082019050919050565b6000613a336021836141a4565b91507f4552433732313a20617070726f76616c20746f2063757272656e74206f776e6560008301527f72000000000000000000000000000000000000000000000000000000000000006020830152604082019050919050565b6000613a996031836141a4565b91507f4552433732313a207472616e736665722063616c6c6572206973206e6f74206f60008301527f776e6572206e6f7220617070726f7665640000000000000000000000000000006020830152604082019050919050565b6000613aff602c836141a4565b91507f455243373231456e756d657261626c653a20676c6f62616c20696e646578206f60008301527f7574206f6620626f756e647300000000000000000000000000000000000000006020830152604082019050919050565b60a082016000820151613b6e6000850182613b9a565b506020820151613b816060850182613c1e565b506040820151613b9460808501826132cd565b50505050565b606082016000820151613bb06000850182613242565b506020820151613bc36020850182613c1e565b506040820151613bd66040850182613242565b50505050565b606082016000820151613bf26000850182613242565b506020820151613c056020850182613c1e565b506040820151613c186040850182613242565b50505050565b613c27816142ef565b82525050565b613c36816142ef565b82525050565b6000613c48828561337b565b9150613c54828461337b565b91508190509392505050565b6000602082019050613c756000830184613251565b92915050565b6000606082019050613c906000830186613251565b613c9d6020830185613251565b613caa6040830184613c2d565b949350505050565b6000608082019050613cc76000830187613251565b613cd46020830186613251565b613ce16040830185613c2d565b8181036060830152613cf381846132eb565b905095945050505050565b60006020820190508181036000830152613d188184613260565b905092915050565b6000602082019050613d3560008301846132be565b92915050565b6000602082019050613d506000830184613324565b92915050565b6000602082019050613d6b6000830184613333565b92915050565b60006020820190508181036000830152613d8b8184613342565b905092915050565b60006040820190508181036000830152613dad8185613342565b9050613dbc6020830184613251565b9392505050565b60006020820190508181036000830152613ddc816133ac565b9050919050565b60006020820190508181036000830152613dfc81613412565b9050919050565b60006020820190508181036000830152613e1c81613478565b9050919050565b60006020820190508181036000830152613e3c816134de565b9050919050565b60006020820190508181036000830152613e5c8161351e565b9050919050565b60006020820190508181036000830152613e7c81613584565b9050919050565b60006020820190508181036000830152613e9c816135c4565b9050919050565b60006020820190508181036000830152613ebc8161362a565b9050919050565b60006020820190508181036000830152613edc816136b6565b9050919050565b60006020820190508181036000830152613efc8161371c565b9050919050565b60006020820190508181036000830152613f1c81613782565b9050919050565b60006020820190508181036000830152613f3c816137e8565b9050919050565b60006020820190508181036000830152613f5c81613828565b9050919050565b60006020820190508181036000830152613f7c816138b4565b9050919050565b60006020820190508181036000830152613f9c8161391a565b9050919050565b60006020820190508181036000830152613fbc81613980565b9050919050565b60006020820190508181036000830152613fdc816139e6565b9050919050565b60006020820190508181036000830152613ffc81613a26565b9050919050565b6000602082019050818103600083015261401c81613a8c565b9050919050565b6000602082019050818103600083015261403c81613af2565b9050919050565b600060a0820190506140586000830186613bdc565b6140656060830185613c2d565b61407260808301846132dc565b949350505050565b600060208201905061408f6000830184613c2d565b92915050565b60006040820190506140aa6000830184613c2d565b6140b660208301613690565b92915050565b60006040820190506140d16000830184613c2d565b6140dd6020830161388e565b92915050565b6000604051905081810181811067ffffffffffffffff8211171561410a576141096144bc565b5b8060405250919050565b600067ffffffffffffffff82111561412f5761412e6144bc565b5b601f19601f8301169050602081019050919050565b6000819050602082019050919050565b600081519050919050565b600081519050919050565b600081519050919050565b6000602082019050919050565b600082825260208201905092915050565b600082825260208201905092915050565b600082825260208201905092915050565b600081905092915050565b60006141cb826142ef565b91506141d6836142ef565b9250827fffffffffffffffffffffffffffffffffffffffffffffffffffffffffffffffff0382111561420b5761420a61442f565b5b828201905092915050565b6000614221826142ef565b915061422c836142ef565b92508261423c5761423b61445e565b5b828204905092915050565b6000614252826142ef565b915061425d836142ef565b9250828210156142705761426f61442f565b5b828203905092915050565b6000614286826142cf565b9050919050565b60008115159050919050565b6000819050919050565b60007fffffffff0000000000000000000000000000000000000000000000000000000082169050919050565b600073ffffffffffffffffffffffffffffffffffffffff82169050919050565b6000819050919050565b60006143048261430b565b9050919050565b6000614316826142cf565b9050919050565b60006143288261432f565b9050919050565b600061433a826142cf565b9050919050565b82818337600083830152505050565b60005b8381101561436e578082015181840152602081019050614353565b8381111561437d576000848401525b50505050565b6000600282049050600182168061439b57607f821691505b602082108114156143af576143ae61448d565b5b50919050565b60006143c0826142ef565b91507fffffffffffffffffffffffffffffffffffffffffffffffffffffffffffffffff8214156143f3576143f261442f565b5b600182019050919050565b6000614409826142ef565b9150614414836142ef565b9250826144245761442361445e565b5b828206905092915050565b7f4e487b7100000000000000000000000000000000000000000000000000000000600052601160045260246000fd5b7f4e487b7100000000000000000000000000000000000000000000000000000000600052601260045260246000fd5b7f4e487b7100000000000000000000000000000000000000000000000000000000600052602260045260246000fd5b7f4e487b7100000000000000000000000000000000000000000000000000000000600052604160045260246000fd5b6000601f19601f8301169050919050565b6145058161427b565b811461451057600080fd5b50565b61451c8161428d565b811461452757600080fd5b50565b614533816142a3565b811461453e57600080fd5b50565b61454a816142ef565b811461455557600080fd5b5056fea2646970667358221220d03326f8be35a01a4a3663b0dace8b3734f8e0ddf99a2f01afc3027eaf4ede5964736f6c63430008000033",
  "linkReferences": {},
  "deployedLinkReferences": {}
}